:03000000021705DF
:0C170500787FE4F6D8FD75814602174C91
:0A1DCC0000A8C0003E6D7C387900CD
:10119C000E22112233445566771020304050607077
:0311AC000130759A
:101D4B00E53B600625E0F53B8003753B01AF3B02AD
:021D5B001E0E5A
:10152100E4FF121AFB8F3BE53B6401701DE530B40B
:1015310075087B007A0079228020E530646270357D
:10154100FB7A0079227D01FC8028E53BB40226E587
:1015510030B4750F7B007A0079297D017C00121C63
:10156100A58012E530B4620D7B007A0079297D01F6
:101571007C00121C4B7F01121AFB8F3BE53B64017F
:10158100701DE530B475087B007A0079238020E571
:101591003064627033FB7A0079237D01FC8026E59B
:1015A1003BB40224E530B4750D7B007A00792A7DC5
:1015B100017C00021CA5E530B4620D7B007A007944
:0815C1002A7D017C00121C4B85
:0115C90022FF
:10080000E4FF121A718F3BE53B6401703FE530B4A1
:10081000751A753062753F0575400575410575425D
:10082000057543057B047D037F02801DE530B462BE
:100830001B753075753F0575400575410575420599
:100840007543057B027D01E4FF121CF37F05121A3C
:10085000718F3BE53B6401701DE530B475087B008A
:100860007A0079248020E53064627035FB7A007963
:10087000247D01FC8028E53BB40226E530B4750FE9
:100880007B007A00792B7D017C00121CA58012E58B
:1008900030B4620D7B007A00792B7D017C00121C44
:1008A0004B7F02121A718F3BE53B6401701DE530EE
:1008B000B475087B007A0079258020E53064627089
:1008C00035FB7A0079257D01FC8028E53BB40226C2
:1008D000E530B4750F7B007A00792C7D017C001225
:1008E0001CA58012E530B4620D7B007A00792C7D66
:1008F000017C00121C4B7F04121A718F3BE53B6494
:1009000001701DE530B475087B007A0079268020DF
:10091000E53064627035FB7A0079267D01FC802821
:10092000E53BB40226E530B4750F7B007A00792DE3
:100930007D017C00121CA58012E530B4620D7B00A5
:100940007A00792D7D017C00121C4B7F01121A71F7
:100950008F3BE53B6401701DE530B475087B007A80
:100960000079278020E53064627035FB7A007927B2
:100970007D01FC8028E53BB40226E530B4750F7B91
:10098000007A00792E7D017C00121CA58012E530D2
:10099000B4620D7B007A00792E7D017C00121C4B25
:1009A0007F03121A718F3BE53B6401701DE530B483
:1009B00075087B007A0079288020E5306462703306
:1009C000FB7A0079287D01FC8026E53BB40224E512
:1009D00030B4750D7B007A00792F7D017C00021CFC
:1009E000A5E530B4620D7B007A00792F7D017C0093
:0309F000121C4B8B
:0109F30022E1
:101CCD00754000754100754200E4F543F544FB7A1B
:101CDD000079227D01FC121BE97B007A0079227DBF
:061CED00017C00021CA5B1
:101910007F607E097D007C00121899E4F53F7F808E
:101920007E25FDFC12146C121D137F98121BB81239
:101930001D307D07E4FF121DDF753F0575400575FD
:1019400041057542057543057B027D01E4FF121CCC
:10195000F37BFF7A1D794B7F0212181C7BFF7A08FC
:1019600079007F0712181C7BFF7A1579217F0412FA
:10197000181C7BFF7A1C79CD7F0A12181C121E14CA
:05198000121B7A80FB40
:091DD6008B88898C88898F88892B
:1011AF0052007A86860086860086860086860086AE
:0911BF00860086860041006F09DC
:03002B00021E08AA
:061E080053BCEFD20F32C3
:020D9D001546F9
:100D9F00200F03020F46C20F90006EE0B40900400F
:100DAF0003020F28900DBAF8282873020E01020DC6
:100DBF00D5020DE7020E13020DD5020DE7020E2A22
:100DCF00020DD5020DE7AFBDEFFEADBE7C00E42DE9
:100DDF00FFEC3E900070803CAFBDEFFEADBE7C00DF
:100DEF00E42DFFEC3E900072F0A3EFF0751A0102B4
:100DFF000F2EAFBDEFFEADBE7C00E42DFFEC3E909D
:100E0F0000748010AFBDEFFEADBE7C00E42DFFEC93
:100E1F003E900076F0A3EFF0020F2EAFBDEFFEADC8
:100E2F00BE7C00E42DFFEC3E900078F0A3EFF09035
:100E3F000078E0FEA3E07807CEC313CE13D8F9A84D
:100E4F0046F6C394065013A846E675F003A4247A19
:100E5F00F582E43400F583E014F090006FE014F0B5
:100E6F006003020F2E7409F0A846E4F6A846E6FFC9
:100E7F00C394064003020F2EEF75F003A4247AF5F6
:100E8F0082E43400F583E0C39480502AE6FF75F0C6
:100E9F0003A4247BF582E43400F583E0D3948040EF
:100EAF0040EF75F003A4247CF582E43400F58374DD
:100EBF0001F0F51B802BA846E6FF75F003A4247BF9
:100ECF00F582E43400F583E0C394805014EF75F09D
:100EDF0003A4247CF582E43400F5837402F0751BBF
:100EEF0001A846E6FF75F003A4247AF582E43400E6
:100EFF00F583E0FEEF75F003A4247BF582E4340064
:100F0F00F583EEF0E675F003A4247AF582E434005D
:100F1F00F5837486F006020E7B90006E74FFF090DE
:100F2F00006EE0D39407400374FFF090006EE0046E
:070F3F00F0901DD693F5BCF4
:030F46000546223B
:021D8C001546FA
:091D8E00A846A61BE4F51BE6FFC4
:031D9700054622DC
:021D9A001546EC
:091D9C00A846A61AE4F51AE6FFB8
:031DA500054622CE
:101BB8008F9D75BC88439720D2AD90004574FFF087
:101BC800A3740DF0A3749DF0A374FFF0A3741DF02B
:101BD800A3748CF0A374FFF0A3741DF0A3749AF09F
:011BE80022DA
:071DFA007B017A00797022E1
:101A7100C3EF64809480403BD3EF648094855033FE
:101A8100EFFD3395E0FC90007C75F003ED120BB98E
:101A9100EC75F003A42583F583E0FE90007C75F0DE
:101AA10003ED120BB9EC75F003A42583F583E4F083
:051AB100AF06227F03D7
:011AB600220D
:10138300E4F5809000C1E0FFB40800505F9013972C
:10139300F82828730213AF0213B50213BB0213C15B
:1013A3000213C70213D10213DB0213E5C2A3C2A2C5
:1013B3008016C2A3C2A2801AC2A3C2A2801EC2A365
:1013C300C2A28022C2A3D2A2C2A1C2A08020C2A371
:1013D300D2A2C2A1D2A08016C2A3D2A2D2A1C2A07D
:1013E300800CC2A3D2A2D2A1D2A08002D2A3C3EF07
:1013F3006480948850299000C1E0FF3395E0FE7427
:10140300B82FF58274003EF583E0FF3395E0FE7458
:10141300D02FF582741D3EF583E493F580801E90F2
:1014230000C1E0FFB408133395E0FE74B82FF582D2
:1014330074003EF583E0F5808003E4F5809000B707
:10144300E0FF9000C1E004FEF0D3EF6480F8EE64A7
:1014530080984014E0D36480948850047408F02288
:091463009000B6E09000C1F022F7
:101D3000E4F5937594FF5395F043960F90002A7441
:0B1D4000FFF0A37413F0A37483F022E3
:091DDF009000B6EFF0A3EDF02234
:101CF3009000B8EFF0A3EDF0A3EBF0A3E53FF0A362
:101D0300E540F0A3E541F0A3E542F0A3E543F0226B
:061E0E009000C0EFF0227D
:1011C8000145004900C3949400949400949400410C
:0311D80000C21E34
:0210790015461A
:10107B0020B2069000C3E014F020B3069000C6E047
:10108B0014F02097069000C9E014F09000C2E01411
:10109B00F06003021199741EF0A846E4F6A846E628
:1010AB00FFC3648094834003021199EF3395E0FEF4
:1010BB009000C375F003EF120BB9EE75F003A42586
:1010CB0083F583E0C3948050399000C475F003EF2F
:1010DB00120BB9EE75F003A42583F583E0D394804E
:1010EB00405AE6FF3395E0FE9000C575F003EF1212
:1010FB000BB9EE75F003A42583F5837401F0F54568
:10110B00803AA846E6FF3395E0FE9000C475F003E5
:10111B00EF120BB9EE75F003A42583F583E0C394AE
:10112B008050199000C575F003EF120BB9EE75F0F6
:10113B0003A42583F5837402F0754501A846E6FFE9
:10114B00FD3395E0FC9000C375F003ED120BB9EC89
:10115B0075F003A42583F583E0FE9000C475F003BE
:10116B00ED120BB9EC75F003A42583F583EEF0EFCC
:10117B003395E0FE9000C375F003EF120BB9EE75DB
:0E118B00F003A42583F5837494F0060210A8E7
:03119900054622E6
:021DA8001546DE
:091DAA00A846A645E4F545E6FF54
:031DB300054622C0
:101D130090003074FFF0A3741DF0A374A8F090003A
:0D1D23002D74FFF0A37410F0A37479F0226A
:101AFB00EF600764016003BF0233EFFD3395E0FC39
:101B0B009000C575F003ED120BB9EC75F003A4252D
:101B1B0083F583E0FE9000C575F003ED120BB9EC75
:0F1B2B0075F003A42583F583E4F0AF06227F0352
:011B3A002288
:1011DB004100000A4100290A41006D0A040E00007B
:1011EB0000000114004600670000FFFF8FFFC10DD8
:1011FB00C105C108C101C10E60240005FF1E20FFFF
:10120B001E20FF1E20FF1E20FF1E20FF1E20FF1E84
:10121B0020FF1E20FF1E20FF1E20FF1E20FF1E2072
:10122B006036002AFF1E20FF1E20FF1E1AFF1E2005
:10123B00FF1E1AFF1E20FF1E1AFF1E20FF1E20FF7F
:10124B001E20FF1E1AFF1E1AFF1E1AFF1E1AFF1E5C
:0A125B0020FF1E20FF1E20FF1E20B2
:011E2000229F
:031E1A007F002224
:101A2A00438E805389F07BE07A2879017800901DF3
:101A3A00CC120B9D121AB7EFF404F58A7BE07A28D0
:101A4A0079017800901DCC120B9D121AB7C3E49F3E
:101A5A00FFE49EFE74019DFDE49CFC7808120B894C
:071A6A008F8CD28CD2A9225F
:03000B000219D8FF
:0419D800C0E0C0D0DB
:1019DC00D5080A75084C300D020514D20DA20372FD
:1019EC00045036150AE50A7030850C0AD207300A05
:1019FC0017E50D6007150D438F01801D538FFEC237
:101A0C00B5D51615C20A8011050BE50BD39406400B
:091A1C0008C203E5136002D206C2
:051A2500D0D0D0E0323A
:10198500300E47C20E901DCC120B9D7810120B899C
:101995008E1C8F1D900003E0FEA3E0FFE4FCFD7BA1
:1019A50019FAF9F8120A59C006C007AE1CAF1DABEB
:1019B50007AA06E4F9F8D007D006121AB778031279
:1019C5000B89900065EEF0A3EFF0900065E0FEA3B3
:0219D500E0FF31
:0119D70022ED
:091DE800900067E0FEA3E0FF2279
:091DF100900067EEF0A3EFF02270
:101D5D0090006BEEF0A3EFF0900069ECF0A3EDF0C6
:011D6D002253
:031E1D00C2B4222A
:03003B000215CAE1
:1015CA00C0E0C083C082C0D075D000C004C005C0CE
:0315DA0006C00741
:1015DD0030DF04C2DF807D30DA04C2DA807630D9A4
:1015ED003DC2D9AFFBEFFEADEB7C00E42DFFEC3E31
:1015FD0020000E900001F0A3EFF075DB11D20080FA
:10160D0053FE900001E0FCA3E0FDC3EF9DFFEE9CB7
:10161D00A3F0A3EFF075DB00C200D20E803630D8F8
:10162D0033C2D8900067E07002A3E06022B2B4909C
:10163D000069E0FEA3E0F5EAEEF5FAA3E0FEA3E013
:10164D00FF90006AE02FF0900069E03EF08005C247
:04165D00B453DAFEAA
:10166100D007D006D005D004D0D0D082D083D0E02E
:011671003246
:061E1400121A2AD2AF22CF
:101791003004047F0180027F00200A047E01800260
:1017A1007E00EE5F6074E515C3950950683002361E
:1017B100750D01E515131313541FAB17AA18A919B9
:1017C100F5827583001209F4FFE515540704FEEF55
:1017D100A806088002C333D8FC30D70575160380EC
:1017E1002F751601802AAB17AA18A91975F002E501
:1017F10015A4F58285F0831209F4F50DE51575F050
:1018010002A429F9EA35F0FA9000011209F4F5165B
:0A1811000515D20A22C204438F100D
:01181B0022AA
:10129600900000E014F0701F740AF0D20590002947
:1012A600E014F07012740AF0D20890006DE014F0A9
:1012B6007005740AF0D20190002AA3E0FAA3E0F9BF
:1012C600120BC590002DA3E0FAA3E0F9120BC5900E
:1012D6000039A3E0FAA3E0F9120BC5900045A3E09C
:1012E600FAA3E0F9120BC5900054A3E0FAA3E0F9C3
:1012F600120BC590005DA3E0FAA3E0F9120BC590AE
:10130600004BA3E0FAA3E0F9120BC5EF600C9000C6
:101316001DA3E0FAA3E0F9120BC590004EA3E0FA74
:10132600A3E0F9120BC5EF600E900020A3E0FAA32C
:10133600E0F9120BC5D20BE512D394004016D51274
:101346003030090C900023A3E0FAA3E0F9120BC594
:10135600D20C801D900051A3E0FAA3E0F9120BC550
:10136600EF600E900023A3E0FAA3E0F9120BC5D2BA
:0D1376000C900005A3E0FAA3E0F9020BC5FE
:1016720090003FA3E0FAA3E0F9120BC5900042A349
:10168200E0FAA3E0F9120BC5900033A3E0FAA3E05D
:10169200F9120BC5900008A3E0FAA3E0F9120BC5FA
:1016A200900030A3E0FAA3E0F9120BC5EF600C90B2
:1016B2000011A3E0FAA3E0F9120BC5900036A3E0F3
:1016C200FAA3E0F9120BC5EF600C900017A3E0FA41
:1016D200A3E0F9120BC5900048A3E0FAA3E0F912C7
:1016E2000BC5EF600C90001AA3E0FAA3E0F9120B0D
:1016F200C530060EC206900026A3E0FAA3E0F91256
:031702000BC522F2
:101B3B0090000BA3E0FAA3E0F9120BC590003CA3B5
:101B4B00E0FAA3E0F9120BC5EF600C900014A3E0D0
:101B5B00FAA3E0F9120BC5900057A3E0FAA3E0F942
:0F1B6B00120BC590005AA3E0FAA3E0F9020BC5D4
:101C7A00AF11AE10AD0FAC0E900060120BAD90001C
:101C8A0064E514F0E4F511F510F50FF50EF514906E
:0B1C9A00000EA3E0FAA3E0F9020BC566
:101B7A00300705C207121791300D05C20D121296D1
:101B8A00300505C205121672300805C208121B3B41
:101B9A00300105C201121C7AE5112401F511E43560
:0E1BAA0010F510E4350FF50FE4350EF50E22A0
:10181C008B3B8A3C893DEFB40C00507090182FF82C
:10182C0028287302185302185802185D0218620215
:10183C00186702186C02187102187602187B0218CD
:10184C008002188502188A90000580359000088067
:10185C003090000B802B90000E8026900011802180
:10186C00900017801C900014801790001A80129022
:10187C00001D800D900020800890002380039000B4
:0D188C0026E53BF0A3E53CF0A3E53DF0228E
:071E01007B017A00796022E9
:1012650055008C0000000000000000000000000098
:08127500000001000000000070
:03004300020BCBE2
:100BCB00C0E0C0F0C083C082C0D075D000C000C0F0
:100BDB0001C002C003C004C005C006C007E59A30BF
:100BEB00E142539AFD900091E0FEA3E0FFC3900019
:100BFB0090E09F90008FE09E501F90008CE0FBA335
:100C0B00E0FAA3E0F9A3E475F001120A4385F08240
:100C1B00F5831209F4F59B800B900093E4F0E51F2C
:100C2B006002C2B7E59A20E003020D82539AFE30B0
:100C3B000C0BC20C900099E4F0A3F0D209E51F64F1
:100C4B00026003020CDC900097E0FEA3E0FFA3E040
:100C5B00FCA3E0FDC39FEC9E5071900094E0FBA3BE
:100C6B00E0FAA3E0F98D828C83E59B120A219000B8
:100C7B009FE0FEA3E0FFC3ED9FEC9E5040900097DA
:100C8B00E0FCA3E0FDEF9DEE9C503290009CE0FB5E
:100C9B00A3E0FAA3E0F9900099E0FEA3E0FFF58250
:100CAB008E831209F4FD900094E0FBA3E0FAA3E01D
:100CBB00F98F828E831209F46D6002C20990009A3B
:100CCB00E004F07006900099E004F0851E12020D0E
:100CDB0082900097E0FEA3E0FFA3E0FCA3E0FDC33E
:100CEB009FEC9E5077900094E0FBA3E0FAA3E0F911
:100CFB008D828C83E59B120A2190009FE0FEA3E07E
:100D0B00FFC3ED9FEC9E5046900097E0FCA3E0FDE7
:100D1B00EF9DEE9C503890009CE0FBA3E0FAA3E023
:100D2B00F9900099E0FEA3E0FFF5828E831209F49F
:100D3B00FD900094E0FBA3E0FAA3E0F98F828E8391
:100D4B001209F46D600890009974FFF0A3F0900005
:100D5B009AE004F07006900099E004F0900097E0A0
:100D6B00FEA3E0FFC390009AE09F900099E09E40A5
:100D7B000690009B7401F0D007D006D005D004D0AC
:100D8B0003D002D001D000D0D0D082D083D0F0D00D
:020D9B00E03244
:021D6E00154618
:0A1D700090009BE0A846F6FFE4F0A7
:031D7A00054622F9
:011E2100229E
:10146C008F3E8E3D8D3C8C3B853F1FE51F7002806F
:10147C000343BA01E51F701790005D74FFF0A3746D
:10148C001EF0A37421F0E4F5DBD290D2918020C23F
:10149C00B7AB3EAA3DA93CA83BE47F407E9CFDFC3B
:1014AC00120AE48F1EE51E7003751E01851E12754F
:1014BC009A10E47B04FAF9F8901DCC120B9D120AD9
:1014CC00E4AB3EAA3DA93CA83B120AE4EFF404F5B8
:1014DC00D7E47B04FAF9F8901DCC120B9D120AE4A8
:1014EC00AB3EAA3DA93CA83B120AE4C3E49FFFE42F
:1014FC009EFE74019DFDE49CFC7808120B768FD641
:10150C00438E1443AF0190005174FFF0A3741DF08F
:05151C00A3746EF02233
:101BE900900094EBF0A3EAF0A3E9F0A3ECF0A3EDE5
:101BF900F090009FE543F0A3E544F090009CE54098
:101C0900F0A3E541F0A3E542F0D20CE490009BF08B
:011C190022A8
:101C4B00900093E0702690008CEBF0A3EAF0A3E9F0
:101C5B00F0E4A3F0A3F0A3ECF0A3EDF0A37401F078
:0F1C6B00E51F6002D2B7439A027F02227F032255
:0B1DB600900093E07002FF227F0122EA
:10127D005500A1000000000000000000000000006B
:08128D00000001000000000058
:03002300020F4980
:100F4900C0E0C0F0C083C082C0D075D000C000C06E
:100F590001C002C003C004C005C006C00730993BE8
:100F6900C2999000A6E0FEA3E0FFC39000A5E09F10
:100F79009000A4E09E501F9000A1E0FBA3E0FAA31B
:100F8900E0F9A3E475F001120A4385F082F58312B2
:100F990009F4F59980059000A8E4F020980302105F
:100FA9005EC298300B09C20B9000AEE4F0A3F0903A
:100FB90000ACE0FEA3E0FFA3E0FCA3E0FDC39FECCF
:100FC9009E50779000A9E0FBA3E0FAA3E0F98D8297
:100FD9008C83E599120A219000B4E0FEA3E0FFC3D7
:100FE900ED9FEC9E50469000ACE0FCA3E0FDEF9D28
:100FF900EE9C50389000B1E0FBA3E0FAA3E0F99031
:1010090000AEE0FEA3E0FFF5828E831209F4FD90A5
:1010190000A9E0FBA3E0FAA3E0F98F828E8312090D
:10102900F46D60089000AE74FFF0A3F09000AFE09B
:1010390004F070069000AEE004F09000ACE0FEA36E
:10104900E0FFC39000AFE09F9000AEE09E400690A5
:1010590000B07401F0D007D006D005D004D003D079
:1010690002D001D000D0D0D082D083D0F0D0E032ED
:021D7D00154609
:0A1D7F009000B0E0A846F6FFE4F083
:031D8900054622EA
:101899008F3E8E3D8D3C8C3B759850438E40538EC8
:1018A900FE53890FE47B04FAF9F8901DCC120B9DC5
:1018B900120AE4AB3EAA3DA93CA83B120AE4EFF4A4
:1018C90004F58BE47B04FAF9F8901DCC120B9D12F8
:1018D9000AE4AB3EAA3DA93CA83B120AE4C3E49F33
:1018E900FFE49EFE74019DFDE49CFC7808120B76D2
:1018F9008F8DC2ABD28ED2AC90004E74FFF0A37420
:071909001DF0A3747DF02224
:101C1A009000A9EBF0A3EAF0A3E9F0A3ECF0A3ED9E
:101C2A00F09000B4E539F0A3E53AF09000B1E5365A
:101C3A00F0A3E537F0A3E538F0D20BE49000B0F05A
:011C4A002277
:101CA5009000A8E0701F9000A1EBF0A3EAF0A3E973
:101CB500F0E4A3F0A3F0A3ECF0A3EDF0A37401F01E
:081CC500D2997F02227F032265
:0B1DC1009000A8E07002FF227F0122CA
:10171100021910E493A3F8E493A34003F68001F2C5
:1017210008DFF48029E493A3F85407240CC8C333D9
:10173100C4540F4420C8834004F456800146F6DFA8
:10174100E4800B010204081020408090119CE47E8B
:10175100019360BCA3FF543F30E509541FFEE4939D
:10176100A360010ECF54C025E060A840B8E493A364
:10177100FAE493A3F8E493A3C8C582C8CAC583CA8F
:10178100F0A3C8C582C8CAC583CADFE9DEE780BE47
:011295000058
:1009F400BB010CE58229F582E5833AF583E02250B8
:100A040006E92582F8E622BBFE06E92582F8E22201
:0D0A1400E58229F582E5833AF583E493221B
:100A2100F8BB010DE58229F582E5833AF583E8F00B
:100A3100225006E92582C8F622BBFE05E92582C8B7
:020A4100F2229F
:100A4300A3F8E0C5F025F0F0E58215827002158366
:060A5300E0C838F0E822C3
:100A5900E88FF0A4CC8BF0A42CFCE98EF0A42CFC3C
:100A69008AF0EDA42CFCEA8EF0A4CDA8F08BF0A4BA
:100A79002DCC3825F0FDE98FF0A42CCD35F0FCEB19
:100A89008EF0A4FEA9F0EB8FF0A4CFC5F02ECD39DE
:0F0A9900FEE43CFCEAA42DCE35F0FDE43CFC224B
:100AA80075F008758200EF2FFFEE33FECD33CDCC05
:100AB80033CCC58233C5829BED9AEC99E582984088
:100AC8000CF582EE9BFEED9AFDEC99FC0FD5F0D665
:100AD800E4CEFBE4CDFAE4CCF9A88222B800C1B98F
:100AE8000059BA002DEC8BF084CFCECDFCE5F0CBCD
:100AF800F97818EF2FFFEE33FEED33FDEC33FCEB06
:100B080033FB10D703994004EB99FB0FD8E5E4F9C0
:100B1800FA227818EF2FFFEE33FEED33FDEC33FCAD
:100B2800C933C910D7059BE99A4007EC9BFCE99AA1
:100B3800F90FD8E0E4C9FAE4CCFB2275F010EF2FE6
:100B4800FFEE33FEED33FDCC33CCC833C810D707E6
:100B58009BEC9AE899400AED9BFDEC9AFCE899F821
:0E0B68000FD5F0DAE4CDFBE4CCFAE4C8F922B4
:101AB700C2D5E830E70FB2D5E4C39BFBE49AFAE45A
:101AC70099F9E498F8EC30E717B2D5121AED120A33
:101AD700E4E4C39BFBE49AFAE499F9E498F88003F9
:101AE700120AE430D50DE4C39FFFE49EFEE49DFD9A
:041AF700E49CFC224D
:100B7600E8600FECC313FCED13FDEE13FEEF13FF5D
:030B8600D8F12281
:100B8900E86010ECA2E713FCED13FDEE13FEEF1382
:040B9900FFD8F0226F
:100B9D00E493FC740193FD740293FE740393FF229E
:0C0BAD00ECF0A3EDF0A3EEF0A3EFF022BB
:0C0BB900A42582F582E5F03583F5832247
:060BC5008A838982E473BB
:00000001FF
